{
  "contractName": "storageIndexing",
  "abi": [
    {
      "inputs": [
        {
          "internalType": "string",
          "name": "_newname",
          "type": "string"
        },
        {
          "internalType": "string",
          "name": "_newcid",
          "type": "string"
        }
      ],
      "name": "store",
      "outputs": [],
      "stateMutability": "nonpayable",
      "type": "function"
    },
    {
      "inputs": [
        {
          "internalType": "string",
          "name": "_filename",
          "type": "string"
        }
      ],
      "name": "retrieve",
      "outputs": [
        {
          "internalType": "string",
          "name": "cid",
          "type": "string"
        }
      ],
      "stateMutability": "view",
      "type": "function",
      "constant": true
    },
    {
      "inputs": [
        {
          "internalType": "string",
          "name": "_filename",
          "type": "string"
        }
      ],
      "name": "clear",
      "outputs": [],
      "stateMutability": "nonpayable",
      "type": "function"
    }
  ],
  "bytecode": "0x608060405234801561001057600080fd5b506109b4806100206000396000f3fe608060405234801561001057600080fd5b50600436106100415760003560e01c806316cf503e1461004657806364cc732714610062578063f641090c14610092575b600080fd5b610060600480360381019061005b9190610423565b6100ae565b005b61007c60048036038101906100779190610423565b610154565b6040516100899190610500565b60405180910390f35b6100ac60048036038101906100a79190610522565b6102bf565b005b60405180602001604052806000815250600083836040516100d09291906105e2565b908152602001604051809103902060000190816100ed9190610840565b5060008083836040516101019291906105e2565b908152602001604051809103902060010160006101000a81548173ffffffffffffffffffffffffffffffffffffffff021916908373ffffffffffffffffffffffffffffffffffffffff1602179055505050565b606082826000828260405161016a9291906105e2565b908152602001604051809103902060010160009054906101000a900473ffffffffffffffffffffffffffffffffffffffff1673ffffffffffffffffffffffffffffffffffffffff163373ffffffffffffffffffffffffffffffffffffffff1614610209576040517f08c379a00000000000000000000000000000000000000000000000000000000081526004016102009061095e565b60405180910390fd5b6000858560405161021b9291906105e2565b9081526020016040518091039020600001805461023790610659565b80601f016020809104026020016040519081016040528092919081815260200182805461026390610659565b80156102b05780601f10610285576101008083540402835291602001916102b0565b820191906000526020600020905b81548152906001019060200180831161029357829003601f168201915b50505050509250505092915050565b604051806040016040528083838080601f016020809104026020016040519081016040528093929190818152602001838380828437600081840152601f19601f8201169050808301925050505050505081526020013373ffffffffffffffffffffffffffffffffffffffff16815250600085856040516103409291906105e2565b908152602001604051809103902060008201518160000190816103639190610840565b5060208201518160010160006101000a81548173ffffffffffffffffffffffffffffffffffffffff021916908373ffffffffffffffffffffffffffffffffffffffff16021790555090505050505050565b600080fd5b600080fd5b600080fd5b600080fd5b600080fd5b60008083601f8401126103e3576103e26103be565b5b8235905067ffffffffffffffff811115610400576103ff6103c3565b5b60208301915083600182028301111561041c5761041b6103c8565b5b9250929050565b6000806020838503121561043a576104396103b4565b5b600083013567ffffffffffffffff811115610458576104576103b9565b5b610464858286016103cd565b92509250509250929050565b600081519050919050565b600082825260208201905092915050565b60005b838110156104aa57808201518184015260208101905061048f565b60008484015250505050565b6000601f19601f8301169050919050565b60006104d282610470565b6104dc818561047b565b93506104ec81856020860161048c565b6104f5816104b6565b840191505092915050565b6000602082019050818103600083015261051a81846104c7565b905092915050565b6000806000806040858703121561053c5761053b6103b4565b5b600085013567ffffffffffffffff81111561055a576105596103b9565b5b610566878288016103cd565b9450945050602085013567ffffffffffffffff811115610589576105886103b9565b5b610595878288016103cd565b925092505092959194509250565b600081905092915050565b82818337600083830152505050565b60006105c983856105a3565b93506105d68385846105ae565b82840190509392505050565b60006105ef8284866105bd565b91508190509392505050565b7f4e487b7100000000000000000000000000000000000000000000000000000000600052604160045260246000fd5b7f4e487b7100000000000000000000000000000000000000000000000000000000600052602260045260246000fd5b6000600282049050600182168061067157607f821691505b6020821081036106845761068361062a565b5b50919050565b60008190508160005260206000209050919050565b60006020601f8301049050919050565b600082821b905092915050565b6000600883026106ec7fffffffffffffffffffffffffffffffffffffffffffffffffffffffffffffffff826106af565b6106f686836106af565b95508019841693508086168417925050509392505050565b6000819050919050565b6000819050919050565b600061073d6107386107338461070e565b610718565b61070e565b9050919050565b6000819050919050565b61075783610722565b61076b61076382610744565b8484546106bc565b825550505050565b600090565b610780610773565b61078b81848461074e565b505050565b5b818110156107af576107a4600082610778565b600181019050610791565b5050565b601f8211156107f4576107c58161068a565b6107ce8461069f565b810160208510156107dd578190505b6107f16107e98561069f565b830182610790565b50505b505050565b600082821c905092915050565b6000610817600019846008026107f9565b1980831691505092915050565b60006108308383610806565b9150826002028217905092915050565b61084982610470565b67ffffffffffffffff811115610862576108616105fb565b5b61086c8254610659565b6108778282856107b3565b600060209050601f8311600181146108aa5760008415610898578287015190505b6108a28582610824565b86555061090a565b601f1984166108b88661068a565b60005b828110156108e0578489015182556001820191506020850194506020810190506108bb565b868310156108fd57848901516108f9601f891682610806565b8355505b6001600288020188555050505b505050505050565b7f796f7520617265206e6f74207468652066696c65206f776e6572000000000000600082015250565b6000610948601a8361047b565b915061095382610912565b602082019050919050565b600060208201905081810360008301526109778161093b565b905091905056fea2646970667358221220bbdbaa07f962f160182111bcc2d00e62444101e5b3efce5bb72d290d533ea07c64736f6c63430008110033",
  "immutableReferences": {},
  "source": "// SPDX-License-Identifier: MIT\npragma solidity >=0.4.22 <0.9.0;\n\ncontract storageIndexing {\n\n    struct fileMetadata {\n        string cid;\n        address owner;\n    }\n\n    mapping(string => fileMetadata) private files;\n\n    modifier onlyOwner (string calldata _filename) {\n        require(msg.sender == files[_filename].owner, \"you are not the file owner\");\n        _;\n    }\n\n    function store(string calldata _newname, string calldata _newcid) public {\n        files[_newname] = fileMetadata(_newcid, msg.sender);\n    }\n\n    function retrieve(string calldata _filename) public view onlyOwner(_filename) returns (string memory cid) {\n        return files[_filename].cid;\n    }\n\n    /* function getOwner(string calldata _filename) public view returns (address owner) {\n        return files[_filename].owner;\n    } */\n\n    function clear(string calldata _filename) public {\n        files[_filename].cid = \"\";\n        files[_filename].owner = 0x0000000000000000000000000000000000000000;\n    }\n\n}\n",
  "sourcePath": "/home/javier/Documents/TFG/ipfs_storage_DApp/contracts/storageIndexing.sol",
  "compiler": {
    "name": "solc",
    "version": "0.8.17+commit.8df45f5f.Emscripten.clang"
  },
  "schemaVersion": "3.4.10",
  "updatedAt": "2022-11-18T12:31:29.543Z",
  "networkType": "ethereum",
  "devdoc": {
    "kind": "dev",
    "methods": {},
    "version": 1
  },
  "userdoc": {
    "kind": "user",
    "methods": {},
    "version": 1
  }
}