{
  "contractName": "storageIndexing",
  "abi": [
    {
      "inputs": [
        {
          "internalType": "string",
          "name": "_newcid",
          "type": "string"
        },
        {
          "internalType": "string",
          "name": "_newname",
          "type": "string"
        }
      ],
      "name": "store",
      "outputs": [],
      "stateMutability": "nonpayable",
      "type": "function"
    },
    {
      "inputs": [
        {
          "internalType": "string",
          "name": "_filename",
          "type": "string"
        }
      ],
      "name": "retrieve",
      "outputs": [
        {
          "internalType": "string",
          "name": "_cid",
          "type": "string"
        }
      ],
      "stateMutability": "view",
      "type": "function",
      "constant": true
    }
  ],
  "bytecode": "0x608060405234801561001057600080fd5b5061070d806100206000396000f3fe608060405234801561001057600080fd5b50600436106100365760003560e01c806364cc73271461003b578063f641090c1461006b575b600080fd5b610055600480360381019061005091906101df565b610087565b60405161006291906102bc565b60405180910390f35b610085600480360381019061008091906102de565b61013a565b005b60606000838360405161009b92919061039e565b908152602001604051809103902080546100b4906103e6565b80601f01602080910402602001604051908101604052809291908181526020018280546100e0906103e6565b801561012d5780601f106101025761010080835404028352916020019161012d565b820191906000526020600020905b81548152906001019060200180831161011057829003601f168201915b5050505050905092915050565b83836000848460405161014e92919061039e565b90815260200160405180910390209182610169929190610607565b5050505050565b600080fd5b600080fd5b600080fd5b600080fd5b600080fd5b60008083601f84011261019f5761019e61017a565b5b8235905067ffffffffffffffff8111156101bc576101bb61017f565b5b6020830191508360018202830111156101d8576101d7610184565b5b9250929050565b600080602083850312156101f6576101f5610170565b5b600083013567ffffffffffffffff81111561021457610213610175565b5b61022085828601610189565b92509250509250929050565b600081519050919050565b600082825260208201905092915050565b60005b8381101561026657808201518184015260208101905061024b565b60008484015250505050565b6000601f19601f8301169050919050565b600061028e8261022c565b6102988185610237565b93506102a8818560208601610248565b6102b181610272565b840191505092915050565b600060208201905081810360008301526102d68184610283565b905092915050565b600080600080604085870312156102f8576102f7610170565b5b600085013567ffffffffffffffff81111561031657610315610175565b5b61032287828801610189565b9450945050602085013567ffffffffffffffff81111561034557610344610175565b5b61035187828801610189565b925092505092959194509250565b600081905092915050565b82818337600083830152505050565b6000610385838561035f565b935061039283858461036a565b82840190509392505050565b60006103ab828486610379565b91508190509392505050565b7f4e487b7100000000000000000000000000000000000000000000000000000000600052602260045260246000fd5b600060028204905060018216806103fe57607f821691505b602082108103610411576104106103b7565b5b50919050565b600082905092915050565b7f4e487b7100000000000000000000000000000000000000000000000000000000600052604160045260246000fd5b60008190508160005260206000209050919050565b60006020601f8301049050919050565b600082821b905092915050565b6000600883026104b37fffffffffffffffffffffffffffffffffffffffffffffffffffffffffffffffff82610476565b6104bd8683610476565b95508019841693508086168417925050509392505050565b6000819050919050565b6000819050919050565b60006105046104ff6104fa846104d5565b6104df565b6104d5565b9050919050565b6000819050919050565b61051e836104e9565b61053261052a8261050b565b848454610483565b825550505050565b600090565b61054761053a565b610552818484610515565b505050565b5b818110156105765761056b60008261053f565b600181019050610558565b5050565b601f8211156105bb5761058c81610451565b61059584610466565b810160208510156105a4578190505b6105b86105b085610466565b830182610557565b50505b505050565b600082821c905092915050565b60006105de600019846008026105c0565b1980831691505092915050565b60006105f783836105cd565b9150826002028217905092915050565b6106118383610417565b67ffffffffffffffff81111561062a57610629610422565b5b61063482546103e6565b61063f82828561057a565b6000601f83116001811461066e576000841561065c578287013590505b61066685826105eb565b8655506106ce565b601f19841661067c86610451565b60005b828110156106a45784890135825560018201915060208501945060208101905061067f565b868310156106c157848901356106bd601f8916826105cd565b8355505b6001600288020188555050505b5050505050505056fea26469706673582212205acf92914feedd74b5b0859fb7592ea0aca0b750b8b1bb72db7de41ce0e6f56f64736f6c63430008110033",
  "immutableReferences": {},
  "source": "// SPDX-License-Identifier: MIT\npragma solidity >=0.4.22 <0.9.0;\n\ncontract storageIndexing {\n\n  /* struct fileReference {\n        string cid;\n        string filename;\n    } */\n\n    mapping(string => string) private files;\n\n    //fileReference[] files;\n    //string[] files;\n\n    function store(string calldata _newcid, string calldata _newname) public {\n        files[_newname] = _newcid;\n    }\n\n    /* function store(string calldata newcid) public {\n        files.push(newcid);\n    }  */\n\n    function retrieve(string calldata _filename) public view returns (string memory _cid) {\n        return files[_filename];\n    }\n\n    /* function retrieve(uint16 index) public view returns (string memory cid) {\n        return files[index];\n    } */\n\n}\n",
  "sourcePath": "/home/javier/Documents/TFG/ipfs_storage_DApp/contracts/storageIndexing.sol",
  "compiler": {
    "name": "solc",
    "version": "0.8.17+commit.8df45f5f.Emscripten.clang"
  },
  "schemaVersion": "3.4.10",
  "updatedAt": "2022-11-16T16:26:03.679Z",
  "networkType": "ethereum",
  "devdoc": {
    "kind": "dev",
    "methods": {},
    "version": 1
  },
  "userdoc": {
    "kind": "user",
    "methods": {},
    "version": 1
  }
}