{
  "contractName": "storageIndexing",
  "abi": [
    {
      "inputs": [
        {
          "internalType": "string",
          "name": "_newcid",
          "type": "string"
        },
        {
          "internalType": "string",
          "name": "_newname",
          "type": "string"
        }
      ],
      "name": "store",
      "outputs": [],
      "stateMutability": "nonpayable",
      "type": "function"
    },
    {
      "inputs": [
        {
          "internalType": "string",
          "name": "_filename",
          "type": "string"
        }
      ],
      "name": "retrieve",
      "outputs": [
        {
          "internalType": "string",
          "name": "_cid",
          "type": "string"
        }
      ],
      "stateMutability": "view",
      "type": "function",
      "constant": true
    },
    {
      "inputs": [
        {
          "internalType": "string",
          "name": "_filename",
          "type": "string"
        }
      ],
      "name": "clear",
      "outputs": [],
      "stateMutability": "nonpayable",
      "type": "function"
    }
  ],
  "bytecode": "0x608060405234801561001057600080fd5b50610847806100206000396000f3fe608060405234801561001057600080fd5b50600436106100415760003560e01c806316cf503e1461004657806364cc732714610062578063f641090c14610092575b600080fd5b610060600480360381019061005b9190610247565b6100ae565b005b61007c60048036038101906100779190610247565b6100ef565b6040516100899190610324565b60405180910390f35b6100ac60048036038101906100a79190610346565b6101a2565b005b60405180602001604052806000815250600083836040516100d0929190610406565b908152602001604051809103902090816100ea9190610664565b505050565b606060008383604051610103929190610406565b9081526020016040518091039020805461011c9061047d565b80601f01602080910402602001604051908101604052809291908181526020018280546101489061047d565b80156101955780601f1061016a57610100808354040283529160200191610195565b820191906000526020600020905b81548152906001019060200180831161017857829003601f168201915b5050505050905092915050565b8383600084846040516101b6929190610406565b908152602001604051809103902091826101d1929190610741565b5050505050565b600080fd5b600080fd5b600080fd5b600080fd5b600080fd5b60008083601f840112610207576102066101e2565b5b8235905067ffffffffffffffff811115610224576102236101e7565b5b6020830191508360018202830111156102405761023f6101ec565b5b9250929050565b6000806020838503121561025e5761025d6101d8565b5b600083013567ffffffffffffffff81111561027c5761027b6101dd565b5b610288858286016101f1565b92509250509250929050565b600081519050919050565b600082825260208201905092915050565b60005b838110156102ce5780820151818401526020810190506102b3565b60008484015250505050565b6000601f19601f8301169050919050565b60006102f682610294565b610300818561029f565b93506103108185602086016102b0565b610319816102da565b840191505092915050565b6000602082019050818103600083015261033e81846102eb565b905092915050565b600080600080604085870312156103605761035f6101d8565b5b600085013567ffffffffffffffff81111561037e5761037d6101dd565b5b61038a878288016101f1565b9450945050602085013567ffffffffffffffff8111156103ad576103ac6101dd565b5b6103b9878288016101f1565b925092505092959194509250565b600081905092915050565b82818337600083830152505050565b60006103ed83856103c7565b93506103fa8385846103d2565b82840190509392505050565b60006104138284866103e1565b91508190509392505050565b7f4e487b7100000000000000000000000000000000000000000000000000000000600052604160045260246000fd5b7f4e487b7100000000000000000000000000000000000000000000000000000000600052602260045260246000fd5b6000600282049050600182168061049557607f821691505b6020821081036104a8576104a761044e565b5b50919050565b60008190508160005260206000209050919050565b60006020601f8301049050919050565b600082821b905092915050565b6000600883026105107fffffffffffffffffffffffffffffffffffffffffffffffffffffffffffffffff826104d3565b61051a86836104d3565b95508019841693508086168417925050509392505050565b6000819050919050565b6000819050919050565b600061056161055c61055784610532565b61053c565b610532565b9050919050565b6000819050919050565b61057b83610546565b61058f61058782610568565b8484546104e0565b825550505050565b600090565b6105a4610597565b6105af818484610572565b505050565b5b818110156105d3576105c860008261059c565b6001810190506105b5565b5050565b601f821115610618576105e9816104ae565b6105f2846104c3565b81016020851015610601578190505b61061561060d856104c3565b8301826105b4565b50505b505050565b600082821c905092915050565b600061063b6000198460080261061d565b1980831691505092915050565b6000610654838361062a565b9150826002028217905092915050565b61066d82610294565b67ffffffffffffffff8111156106865761068561041f565b5b610690825461047d565b61069b8282856105d7565b600060209050601f8311600181146106ce57600084156106bc578287015190505b6106c68582610648565b86555061072e565b601f1984166106dc866104ae565b60005b82811015610704578489015182556001820191506020850194506020810190506106df565b86831015610721578489015161071d601f89168261062a565b8355505b6001600288020188555050505b505050505050565b600082905092915050565b61074b8383610736565b67ffffffffffffffff8111156107645761076361041f565b5b61076e825461047d565b6107798282856105d7565b6000601f8311600181146107a85760008415610796578287013590505b6107a08582610648565b865550610808565b601f1984166107b6866104ae565b60005b828110156107de578489013582556001820191506020850194506020810190506107b9565b868310156107fb57848901356107f7601f89168261062a565b8355505b6001600288020188555050505b5050505050505056fea26469706673582212205912d09dec33440382b5bf2b565de18305b7cbb2e35dbf469beab53aa94aa59064736f6c63430008110033",
  "immutableReferences": {},
  "source": "// SPDX-License-Identifier: MIT\npragma solidity >=0.4.22 <0.9.0;\n\ncontract storageIndexing {\n\n    mapping(string => string) private files;\n\n    function store(string calldata _newcid, string calldata _newname) public {\n        files[_newname] = _newcid;\n    }\n\n    function retrieve(string calldata _filename) public view returns (string memory _cid) {\n        return files[_filename];\n    }\n\n    function clear(string calldata _filename) public {\n        files[_filename] = \"\";\n    }\n\n}\n",
  "sourcePath": "/home/javier/Documents/TFG/ipfs_storage_DApp/contracts/storageIndexing.sol",
  "compiler": {
    "name": "solc",
    "version": "0.8.17+commit.8df45f5f.Emscripten.clang"
  },
  "schemaVersion": "3.4.10",
  "updatedAt": "2022-11-17T16:45:03.945Z",
  "networkType": "ethereum",
  "devdoc": {
    "kind": "dev",
    "methods": {},
    "version": 1
  },
  "userdoc": {
    "kind": "user",
    "methods": {},
    "version": 1
  }
}